{
  "_format": "hh-sol-artifact-1",
  "contractName": "EthereumTransactions",
  "sourceName": "contracts/ethTransactions.sol",
  "abi": [
    {
      "anonymous": false,
      "inputs": [
        {
          "indexed": false,
          "internalType": "address",
          "name": "from",
          "type": "address"
        },
        {
          "indexed": false,
          "internalType": "address",
          "name": "to",
          "type": "address"
        },
        {
          "indexed": false,
          "internalType": "uint256",
          "name": "amount",
          "type": "uint256"
        },
        {
          "indexed": false,
          "internalType": "string",
          "name": "message",
          "type": "string"
        },
        {
          "indexed": false,
          "internalType": "uint256",
          "name": "timestamp",
          "type": "uint256"
        }
      ],
      "name": "EtherTransfer",
      "type": "event"
    },
    {
      "inputs": [],
      "name": "getAllEtherTransactions",
      "outputs": [
        {
          "components": [
            {
              "internalType": "address",
              "name": "sender",
              "type": "address"
            },
            {
              "internalType": "address",
              "name": "receiver",
              "type": "address"
            },
            {
              "internalType": "uint256",
              "name": "amount",
              "type": "uint256"
            },
            {
              "internalType": "string",
              "name": "message",
              "type": "string"
            },
            {
              "internalType": "uint256",
              "name": "timestamp",
              "type": "uint256"
            }
          ],
          "internalType": "struct EthereumTransactions.Transaction[]",
          "name": "",
          "type": "tuple[]"
        }
      ],
      "stateMutability": "view",
      "type": "function"
    },
    {
      "inputs": [],
      "name": "getEtherTransactionCount",
      "outputs": [
        {
          "internalType": "uint256",
          "name": "",
          "type": "uint256"
        }
      ],
      "stateMutability": "view",
      "type": "function"
    },
    {
      "inputs": [
        {
          "internalType": "address payable",
          "name": "reciever",
          "type": "address"
        },
        {
          "internalType": "uint256",
          "name": "amount",
          "type": "uint256"
        },
        {
          "internalType": "string",
          "name": "message",
          "type": "string"
        }
      ],
      "name": "sendEther",
      "outputs": [],
      "stateMutability": "nonpayable",
      "type": "function"
    }
  ],
  "bytecode": "0x608060405234801561001057600080fd5b50610cfc806100206000396000f3fe608060405234801561001057600080fd5b50600436106100415760003560e01c8063694c2d9d146100465780637673108214610062578063ab92a5d114610080575b600080fd5b610060600480360381019061005b91906105db565b61009e565b005b61006a610233565b6040516100779190610831565b60405180910390f35b6100886103e4565b6040516100959190610862565b60405180910390f35b60016000808282546100b091906108ac565b9250508190555060016040518060a001604052803373ffffffffffffffffffffffffffffffffffffffff1681526020018573ffffffffffffffffffffffffffffffffffffffff16815260200184815260200183815260200142815250908060018154018082558091505060019003906000526020600020906005020160009091909190915060008201518160000160006101000a81548173ffffffffffffffffffffffffffffffffffffffff021916908373ffffffffffffffffffffffffffffffffffffffff16021790555060208201518160010160006101000a81548173ffffffffffffffffffffffffffffffffffffffff021916908373ffffffffffffffffffffffffffffffffffffffff1602179055506040820151816002015560608201518160030190816101e29190610aec565b506080820151816004015550507f1818d2c87a6090fdae72ecd332a6adcc5472751275ba748125b15984b085f23e3384848442604051610226959493929190610c6c565b60405180910390a1505050565b60606001805480602002602001604051908101604052809291908181526020016000905b828210156103db57838290600052602060002090600502016040518060a00160405290816000820160009054906101000a900473ffffffffffffffffffffffffffffffffffffffff1673ffffffffffffffffffffffffffffffffffffffff1673ffffffffffffffffffffffffffffffffffffffff1681526020016001820160009054906101000a900473ffffffffffffffffffffffffffffffffffffffff1673ffffffffffffffffffffffffffffffffffffffff1673ffffffffffffffffffffffffffffffffffffffff168152602001600282015481526020016003820180546103409061090f565b80601f016020809104026020016040519081016040528092919081815260200182805461036c9061090f565b80156103b95780601f1061038e576101008083540402835291602001916103b9565b820191906000526020600020905b81548152906001019060200180831161039c57829003601f168201915b5050505050815260200160048201548152505081526020019060010190610257565b50505050905090565b60008054905090565b6000604051905090565b600080fd5b600080fd5b600073ffffffffffffffffffffffffffffffffffffffff82169050919050565b600061042c82610401565b9050919050565b61043c81610421565b811461044757600080fd5b50565b60008135905061045981610433565b92915050565b6000819050919050565b6104728161045f565b811461047d57600080fd5b50565b60008135905061048f81610469565b92915050565b600080fd5b600080fd5b6000601f19601f8301169050919050565b7f4e487b7100000000000000000000000000000000000000000000000000000000600052604160045260246000fd5b6104e88261049f565b810181811067ffffffffffffffff82111715610507576105066104b0565b5b80604052505050565b600061051a6103ed565b905061052682826104df565b919050565b600067ffffffffffffffff821115610546576105456104b0565b5b61054f8261049f565b9050602081019050919050565b82818337600083830152505050565b600061057e6105798461052b565b610510565b90508281526020810184848401111561059a5761059961049a565b5b6105a584828561055c565b509392505050565b600082601f8301126105c2576105c1610495565b5b81356105d284826020860161056b565b91505092915050565b6000806000606084860312156105f4576105f36103f7565b5b60006106028682870161044a565b935050602061061386828701610480565b925050604084013567ffffffffffffffff811115610634576106336103fc565b5b610640868287016105ad565b9150509250925092565b600081519050919050565b600082825260208201905092915050565b6000819050602082019050919050565b600061068182610401565b9050919050565b61069181610676565b82525050565b6106a08161045f565b82525050565b600081519050919050565b600082825260208201905092915050565b60005b838110156106e05780820151818401526020810190506106c5565b60008484015250505050565b60006106f7826106a6565b61070181856106b1565b93506107118185602086016106c2565b61071a8161049f565b840191505092915050565b600060a08301600083015161073d6000860182610688565b5060208301516107506020860182610688565b5060408301516107636040860182610697565b506060830151848203606086015261077b82826106ec565b91505060808301516107906080860182610697565b508091505092915050565b60006107a78383610725565b905092915050565b6000602082019050919050565b60006107c78261064a565b6107d18185610655565b9350836020820285016107e385610666565b8060005b8581101561081f5784840389528151610800858261079b565b945061080b836107af565b925060208a019950506001810190506107e7565b50829750879550505050505092915050565b6000602082019050818103600083015261084b81846107bc565b905092915050565b61085c8161045f565b82525050565b60006020820190506108776000830184610853565b92915050565b7f4e487b7100000000000000000000000000000000000000000000000000000000600052601160045260246000fd5b60006108b78261045f565b91506108c28361045f565b92508282019050808211156108da576108d961087d565b5b92915050565b7f4e487b7100000000000000000000000000000000000000000000000000000000600052602260045260246000fd5b6000600282049050600182168061092757607f821691505b60208210810361093a576109396108e0565b5b50919050565b60008190508160005260206000209050919050565b60006020601f8301049050919050565b600082821b905092915050565b6000600883026109a27fffffffffffffffffffffffffffffffffffffffffffffffffffffffffffffffff82610965565b6109ac8683610965565b95508019841693508086168417925050509392505050565b6000819050919050565b60006109e96109e46109df8461045f565b6109c4565b61045f565b9050919050565b6000819050919050565b610a03836109ce565b610a17610a0f826109f0565b848454610972565b825550505050565b600090565b610a2c610a1f565b610a378184846109fa565b505050565b5b81811015610a5b57610a50600082610a24565b600181019050610a3d565b5050565b601f821115610aa057610a7181610940565b610a7a84610955565b81016020851015610a89578190505b610a9d610a9585610955565b830182610a3c565b50505b505050565b600082821c905092915050565b6000610ac360001984600802610aa5565b1980831691505092915050565b6000610adc8383610ab2565b9150826002028217905092915050565b610af5826106a6565b67ffffffffffffffff811115610b0e57610b0d6104b0565b5b610b18825461090f565b610b23828285610a5f565b600060209050601f831160018114610b565760008415610b44578287015190505b610b4e8582610ad0565b865550610bb6565b601f198416610b6486610940565b60005b82811015610b8c57848901518255600182019150602085019450602081019050610b67565b86831015610ba95784890151610ba5601f891682610ab2565b8355505b6001600288020188555050505b505050505050565b610bc781610676565b82525050565b6000610be8610be3610bde84610401565b6109c4565b610401565b9050919050565b6000610bfa82610bcd565b9050919050565b6000610c0c82610bef565b9050919050565b610c1c81610c01565b82525050565b600082825260208201905092915050565b6000610c3e826106a6565b610c488185610c22565b9350610c588185602086016106c2565b610c618161049f565b840191505092915050565b600060a082019050610c816000830188610bbe565b610c8e6020830187610c13565b610c9b6040830186610853565b8181036060830152610cad8185610c33565b9050610cbc6080830184610853565b969550505050505056fea26469706673582212205055de656ab68d878a279391b3e4e530f900c161dcda80e2f91b4033f5d06a7564736f6c63430008130033",
  "linkReferences": {},
  "deployedLinkReferences": {}
}