{
  "_format": "hh-sol-artifact-1",
  "contractName": "FlightTicket",
  "sourceName": "contracts/Plane.sol",
  "abi": [
    {
      "inputs": [],
      "stateMutability": "nonpayable",
      "type": "constructor"
    },
    {
      "anonymous": false,
      "inputs": [
        {
          "indexed": false,
          "internalType": "string",
          "name": "message",
          "type": "string"
        },
        {
          "indexed": false,
          "internalType": "string",
          "name": "value",
          "type": "string"
        }
      ],
      "name": "LogString",
      "type": "event"
    },
    {
      "anonymous": false,
      "inputs": [
        {
          "indexed": false,
          "internalType": "uint256",
          "name": "ticketId",
          "type": "uint256"
        },
        {
          "indexed": false,
          "internalType": "address",
          "name": "buyer",
          "type": "address"
        },
        {
          "indexed": false,
          "internalType": "uint256",
          "name": "price",
          "type": "uint256"
        }
      ],
      "name": "TicketPurchased",
      "type": "event"
    },
    {
      "inputs": [],
      "name": "MAX_SEATS",
      "outputs": [
        {
          "internalType": "uint256",
          "name": "",
          "type": "uint256"
        }
      ],
      "stateMutability": "view",
      "type": "function"
    },
    {
      "inputs": [
        {
          "internalType": "string",
          "name": "classType",
          "type": "string"
        },
        {
          "internalType": "uint256",
          "name": "numTravelers",
          "type": "uint256"
        }
      ],
      "name": "calculateTicketPrice",
      "outputs": [
        {
          "internalType": "uint256",
          "name": "",
          "type": "uint256"
        }
      ],
      "stateMutability": "pure",
      "type": "function"
    },
    {
      "inputs": [
        {
          "internalType": "uint256",
          "name": "ticketId",
          "type": "uint256"
        }
      ],
      "name": "getTicketDetails",
      "outputs": [
        {
          "internalType": "address",
          "name": "buyer",
          "type": "address"
        },
        {
          "internalType": "string",
          "name": "departingFrom",
          "type": "string"
        },
        {
          "internalType": "string",
          "name": "returningTo",
          "type": "string"
        },
        {
          "internalType": "uint256",
          "name": "departingDate",
          "type": "uint256"
        },
        {
          "internalType": "uint256",
          "name": "returningDate",
          "type": "uint256"
        },
        {
          "internalType": "uint256",
          "name": "numTravelers",
          "type": "uint256"
        },
        {
          "internalType": "string",
          "name": "classType",
          "type": "string"
        },
        {
          "internalType": "uint256",
          "name": "price",
          "type": "uint256"
        }
      ],
      "stateMutability": "view",
      "type": "function"
    },
    {
      "inputs": [],
      "name": "owner",
      "outputs": [
        {
          "internalType": "address",
          "name": "",
          "type": "address"
        }
      ],
      "stateMutability": "view",
      "type": "function"
    },
    {
      "inputs": [
        {
          "internalType": "string",
          "name": "departingFrom",
          "type": "string"
        },
        {
          "internalType": "string",
          "name": "returningTo",
          "type": "string"
        },
        {
          "internalType": "uint256",
          "name": "departingDate",
          "type": "uint256"
        },
        {
          "internalType": "uint256",
          "name": "returningDate",
          "type": "uint256"
        },
        {
          "internalType": "uint256",
          "name": "numTravelers",
          "type": "uint256"
        },
        {
          "internalType": "string",
          "name": "classType",
          "type": "string"
        }
      ],
      "name": "purchaseTicket",
      "outputs": [],
      "stateMutability": "payable",
      "type": "function"
    },
    {
      "inputs": [],
      "name": "ticketCount",
      "outputs": [
        {
          "internalType": "uint256",
          "name": "",
          "type": "uint256"
        }
      ],
      "stateMutability": "view",
      "type": "function"
    },
    {
      "inputs": [
        {
          "internalType": "uint256",
          "name": "",
          "type": "uint256"
        }
      ],
      "name": "tickets",
      "outputs": [
        {
          "internalType": "address",
          "name": "buyer",
          "type": "address"
        },
        {
          "internalType": "string",
          "name": "departingFrom",
          "type": "string"
        },
        {
          "internalType": "string",
          "name": "returningTo",
          "type": "string"
        },
        {
          "internalType": "uint256",
          "name": "departingDate",
          "type": "uint256"
        },
        {
          "internalType": "uint256",
          "name": "returningDate",
          "type": "uint256"
        },
        {
          "internalType": "uint256",
          "name": "numTravelers",
          "type": "uint256"
        },
        {
          "internalType": "string",
          "name": "classType",
          "type": "string"
        },
        {
          "internalType": "uint256",
          "name": "price",
          "type": "uint256"
        }
      ],
      "stateMutability": "view",
      "type": "function"
    },
    {
      "inputs": [],
      "name": "withdrawFunds",
      "outputs": [],
      "stateMutability": "nonpayable",
      "type": "function"
    }
  ],
  "bytecode": "0x608060405234801561001057600080fd5b50336000806101000a81548173ffffffffffffffffffffffffffffffffffffffff021916908373ffffffffffffffffffffffffffffffffffffffff1602179055506118ee806100606000396000f3fe60806040526004361061007b5760003560e01c8063601f6db21161004e578063601f6db21461013b5780638da5cb5b1461017857806394c2c24f146101a3578063cfbd900f146101ce5761007b565b806324600fc31461008057806324c141601461009757806350b44712146100db5780635c4dac231461011f575b600080fd5b34801561008c57600080fd5b506100956101f9565b005b3480156100a357600080fd5b506100be60048036038101906100b99190610bde565b610333565b6040516100d2989796959493929190610ceb565b60405180910390f35b3480156100e757600080fd5b5061010260048036038101906100fd9190610bde565b6105a1565b604051610116989796959493929190610ceb565b60405180910390f35b61013960048036038101906101349190610eb3565b6107a1565b005b34801561014757600080fd5b50610162600480360381019061015d9190610f94565b6109ff565b60405161016f9190610ff0565b60405180910390f35b34801561018457600080fd5b5061018d610b65565b60405161019a919061100b565b60405180910390f35b3480156101af57600080fd5b506101b8610b89565b6040516101c59190610ff0565b60405180910390f35b3480156101da57600080fd5b506101e3610b8e565b6040516101f09190610ff0565b60405180910390f35b60008054906101000a900473ffffffffffffffffffffffffffffffffffffffff1673ffffffffffffffffffffffffffffffffffffffff163373ffffffffffffffffffffffffffffffffffffffff1614610287576040517f08c379a000000000000000000000000000000000000000000000000000000000815260040161027e90611098565b60405180910390fd5b600047116102ca576040517f08c379a00000000000000000000000000000000000000000000000000000000081526004016102c190611104565b60405180910390fd5b60008054906101000a900473ffffffffffffffffffffffffffffffffffffffff1673ffffffffffffffffffffffffffffffffffffffff166108fc479081150290604051600060405180830381858888f19350505050158015610330573d6000803e3d6000fd5b50565b60006060806000806000606060006001548910610385576040517f08c379a000000000000000000000000000000000000000000000000000000000815260040161037c90611170565b60405180910390fd5b6000600260008b815260200190815260200160002090508060000160009054906101000a900473ffffffffffffffffffffffffffffffffffffffff1681600101826002018360030154846004015485600501548660060187600701548680546103ed906111bf565b80601f0160208091040260200160405190810160405280929190818152602001828054610419906111bf565b80156104665780601f1061043b57610100808354040283529160200191610466565b820191906000526020600020905b81548152906001019060200180831161044957829003601f168201915b50505050509650858054610479906111bf565b80601f01602080910402602001604051908101604052809291908181526020018280546104a5906111bf565b80156104f25780601f106104c7576101008083540402835291602001916104f2565b820191906000526020600020905b8154815290600101906020018083116104d557829003601f168201915b50505050509550818054610505906111bf565b80601f0160208091040260200160405190810160405280929190818152602001828054610531906111bf565b801561057e5780601f106105535761010080835404028352916020019161057e565b820191906000526020600020905b81548152906001019060200180831161056157829003601f168201915b505050505091509850985098509850985098509850985050919395975091939597565b60026020528060005260406000206000915090508060000160009054906101000a900473ffffffffffffffffffffffffffffffffffffffff16908060010180546105ea906111bf565b80601f0160208091040260200160405190810160405280929190818152602001828054610616906111bf565b80156106635780601f1061063857610100808354040283529160200191610663565b820191906000526020600020905b81548152906001019060200180831161064657829003601f168201915b505050505090806002018054610678906111bf565b80601f01602080910402602001604051908101604052809291908181526020018280546106a4906111bf565b80156106f15780601f106106c6576101008083540402835291602001916106f1565b820191906000526020600020905b8154815290600101906020018083116106d457829003601f168201915b505050505090806003015490806004015490806005015490806006018054610718906111bf565b80601f0160208091040260200160405190810160405280929190818152602001828054610744906111bf565b80156107915780601f1061076657610100808354040283529160200191610791565b820191906000526020600020905b81548152906001019060200180831161077457829003601f168201915b5050505050908060070154905088565b816064816001546107b2919061121f565b11156107f3576040517f08c379a00000000000000000000000000000000000000000000000000000000081526004016107ea9061129f565b60405180910390fd5b60003411610836576040517f08c379a000000000000000000000000000000000000000000000000000000000815260040161082d9061130b565b60405180910390fd5b600061084283856109ff565b905080341015610887576040517f08c379a000000000000000000000000000000000000000000000000000000000815260040161087e90611377565b60405180910390fd5b60006001600081548092919061089c90611397565b9190505590506040518061010001604052803373ffffffffffffffffffffffffffffffffffffffff1681526020018a8152602001898152602001888152602001878152602001868152602001858152602001838152506002600083815260200190815260200160002060008201518160000160006101000a81548173ffffffffffffffffffffffffffffffffffffffff021916908373ffffffffffffffffffffffffffffffffffffffff1602179055506020820151816001019081610961919061158b565b506040820151816002019081610977919061158b565b50606082015181600301556080820151816004015560a0820151816005015560c08201518160060190816109ab919061158b565b5060e082015181600701559050507fdbaaf4c87ce30816c961a81d110622a3227ede77953d4383d514ff88ab2e0fd38133846040516109ec9392919061165d565b60405180910390a1505050505050505050565b600080604051602001610a11906116eb565b6040516020818303038152906040528051906020012084604051602001610a389190611731565b6040516020818303038152906040528051906020012003610a5d5761012c9050610b50565b604051602001610a6c90611794565b6040516020818303038152906040528051906020012084604051602001610a939190611731565b6040516020818303038152906040528051906020012003610ab8576102589050610b4f565b604051602001610ac7906117f5565b6040516020818303038152906040528051906020012084604051602001610aee9190611731565b6040516020818303038152906040528051906020012003610b13576103e89050610b4e565b6040517f08c379a0000000000000000000000000000000000000000000000000000000008152600401610b4590611856565b60405180910390fd5b5b5b8281610b5c9190611876565b91505092915050565b60008054906101000a900473ffffffffffffffffffffffffffffffffffffffff1681565b606481565b60015481565b6000604051905090565b600080fd5b600080fd5b6000819050919050565b610bbb81610ba8565b8114610bc657600080fd5b50565b600081359050610bd881610bb2565b92915050565b600060208284031215610bf457610bf3610b9e565b5b6000610c0284828501610bc9565b91505092915050565b600073ffffffffffffffffffffffffffffffffffffffff82169050919050565b6000610c3682610c0b565b9050919050565b610c4681610c2b565b82525050565b600081519050919050565b600082825260208201905092915050565b60005b83811015610c86578082015181840152602081019050610c6b565b60008484015250505050565b6000601f19601f8301169050919050565b6000610cae82610c4c565b610cb88185610c57565b9350610cc8818560208601610c68565b610cd181610c92565b840191505092915050565b610ce581610ba8565b82525050565b600061010082019050610d01600083018b610c3d565b8181036020830152610d13818a610ca3565b90508181036040830152610d278189610ca3565b9050610d366060830188610cdc565b610d436080830187610cdc565b610d5060a0830186610cdc565b81810360c0830152610d628185610ca3565b9050610d7160e0830184610cdc565b9998505050505050505050565b600080fd5b600080fd5b7f4e487b7100000000000000000000000000000000000000000000000000000000600052604160045260246000fd5b610dc082610c92565b810181811067ffffffffffffffff82111715610ddf57610dde610d88565b5b80604052505050565b6000610df2610b94565b9050610dfe8282610db7565b919050565b600067ffffffffffffffff821115610e1e57610e1d610d88565b5b610e2782610c92565b9050602081019050919050565b82818337600083830152505050565b6000610e56610e5184610e03565b610de8565b905082815260208101848484011115610e7257610e71610d83565b5b610e7d848285610e34565b509392505050565b600082601f830112610e9a57610e99610d7e565b5b8135610eaa848260208601610e43565b91505092915050565b60008060008060008060c08789031215610ed057610ecf610b9e565b5b600087013567ffffffffffffffff811115610eee57610eed610ba3565b5b610efa89828a01610e85565b965050602087013567ffffffffffffffff811115610f1b57610f1a610ba3565b5b610f2789828a01610e85565b9550506040610f3889828a01610bc9565b9450506060610f4989828a01610bc9565b9350506080610f5a89828a01610bc9565b92505060a087013567ffffffffffffffff811115610f7b57610f7a610ba3565b5b610f8789828a01610e85565b9150509295509295509295565b60008060408385031215610fab57610faa610b9e565b5b600083013567ffffffffffffffff811115610fc957610fc8610ba3565b5b610fd585828601610e85565b9250506020610fe685828601610bc9565b9150509250929050565b60006020820190506110056000830184610cdc565b92915050565b60006020820190506110206000830184610c3d565b92915050565b7f4f6e6c7920746865206f776e65722063616e2063616c6c20746869732066756e60008201527f6374696f6e000000000000000000000000000000000000000000000000000000602082015250565b6000611082602583610c57565b915061108d82611026565b604082019050919050565b600060208201905081810360008301526110b181611075565b9050919050565b7f4e6f2066756e647320746f207769746864726177000000000000000000000000600082015250565b60006110ee601483610c57565b91506110f9826110b8565b602082019050919050565b6000602082019050818103600083015261111d816110e1565b9050919050565b7f496e76616c6964207469636b6574204944000000000000000000000000000000600082015250565b600061115a601183610c57565b915061116582611124565b602082019050919050565b600060208201905081810360008301526111898161114d565b9050919050565b7f4e487b7100000000000000000000000000000000000000000000000000000000600052602260045260246000fd5b600060028204905060018216806111d757607f821691505b6020821081036111ea576111e9611190565b5b50919050565b7f4e487b7100000000000000000000000000000000000000000000000000000000600052601160045260246000fd5b600061122a82610ba8565b915061123583610ba8565b925082820190508082111561124d5761124c6111f0565b5b92915050565b7f4e6f7420656e6f75676820617661696c61626c65207365617473000000000000600082015250565b6000611289601a83610c57565b915061129482611253565b602082019050919050565b600060208201905081810360008301526112b88161127c565b9050919050565b7f496e76616c6964207061796d656e740000000000000000000000000000000000600082015250565b60006112f5600f83610c57565b9150611300826112bf565b602082019050919050565b60006020820190508181036000830152611324816112e8565b9050919050565b7f496e73756666696369656e742066756e64730000000000000000000000000000600082015250565b6000611361601283610c57565b915061136c8261132b565b602082019050919050565b6000602082019050818103600083015261139081611354565b9050919050565b60006113a282610ba8565b91507fffffffffffffffffffffffffffffffffffffffffffffffffffffffffffffffff82036113d4576113d36111f0565b5b600182019050919050565b60008190508160005260206000209050919050565b60006020601f8301049050919050565b600082821b905092915050565b6000600883026114417fffffffffffffffffffffffffffffffffffffffffffffffffffffffffffffffff82611404565b61144b8683611404565b95508019841693508086168417925050509392505050565b6000819050919050565b600061148861148361147e84610ba8565b611463565b610ba8565b9050919050565b6000819050919050565b6114a28361146d565b6114b66114ae8261148f565b848454611411565b825550505050565b600090565b6114cb6114be565b6114d6818484611499565b505050565b5b818110156114fa576114ef6000826114c3565b6001810190506114dc565b5050565b601f82111561153f57611510816113df565b611519846113f4565b81016020851015611528578190505b61153c611534856113f4565b8301826114db565b50505b505050565b600082821c905092915050565b600061156260001984600802611544565b1980831691505092915050565b600061157b8383611551565b9150826002028217905092915050565b61159482610c4c565b67ffffffffffffffff8111156115ad576115ac610d88565b5b6115b782546111bf565b6115c28282856114fe565b600060209050601f8311600181146115f557600084156115e3578287015190505b6115ed858261156f565b865550611655565b601f198416611603866113df565b60005b8281101561162b57848901518255600182019150602085019450602081019050611606565b868310156116485784890151611644601f891682611551565b8355505b6001600288020188555050505b505050505050565b60006060820190506116726000830186610cdc565b61167f6020830185610c3d565b61168c6040830184610cdc565b949350505050565b600081905092915050565b7f45636f6e6f6d7900000000000000000000000000000000000000000000000000600082015250565b60006116d5600783611694565b91506116e08261169f565b600782019050919050565b60006116f6826116c8565b9150819050919050565b600061170b82610c4c565b6117158185611694565b9350611725818560208601610c68565b80840191505092915050565b600061173d8284611700565b915081905092915050565b7f427573696e657373000000000000000000000000000000000000000000000000600082015250565b600061177e600883611694565b915061178982611748565b600882019050919050565b600061179f82611771565b9150819050919050565b7f4669727374436c61737300000000000000000000000000000000000000000000600082015250565b60006117df600a83611694565b91506117ea826117a9565b600a82019050919050565b6000611800826117d2565b9150819050919050565b7f496e76616c696420636c61737354797065000000000000000000000000000000600082015250565b6000611840601183610c57565b915061184b8261180a565b602082019050919050565b6000602082019050818103600083015261186f81611833565b9050919050565b600061188182610ba8565b915061188c83610ba8565b925082820261189a81610ba8565b915082820484148315176118b1576118b06111f0565b5b509291505056fea2646970667358221220a6f2f47597d8851fec8044c6f3189b225c6e9fe8b22792b7335c1718e8f45d2f64736f6c63430008130033",
  "linkReferences": {},
  "deployedLinkReferences": {}
}